{
    "contractName": "Item",
    "abi": [
        {
            "inputs": [
                {
                    "internalType": "uint256",
                    "name": "",
                    "type": "uint256"
                }
            ],
            "name": "Items",
            "outputs": [
                {
                    "internalType": "string",
                    "name": "product_name",
                    "type": "string"
                },
                {
                    "internalType": "uint256",
                    "name": "productId",
                    "type": "uint256"
                },
                {
                    "internalType": "address",
                    "name": "itemOwner",
                    "type": "address"
                },
                {
                    "internalType": "string",
                    "name": "current_location",
                    "type": "string"
                },
                {
                    "internalType": "uint256",
                    "name": "norders",
                    "type": "uint256"
                },
                {
                    "internalType": "uint256",
                    "name": "cost",
                    "type": "uint256"
                }
            ],
            "stateMutability": "view",
            "type": "function"
        },
        {
            "inputs": [],
            "name": "ic",
            "outputs": [
                {
                    "internalType": "uint256",
                    "name": "",
                    "type": "uint256"
                }
            ],
            "stateMutability": "view",
            "type": "function"
        }
    ],
    "bytecode": "60806040526000805534801561001457600080fd5b506102f2806100246000396000f3fe608060405234801561001057600080fd5b50600436106100365760003560e01c806317b47cc41461003b578063a8d9da1214610069575b600080fd5b61004e6100493660046101d2565b610080565b60405161006096959493929190610231565b60405180910390f35b61007260005481565b604051908152602001610060565b60016020526000908152604090208054819061009b90610282565b80601f01602080910402602001604051908101604052809291908181526020018280546100c790610282565b80156101145780601f106100e957610100808354040283529160200191610114565b820191906000526020600020905b8154815290600101906020018083116100f757829003601f168201915b5050505060018301546002840154600385018054949592946001600160a01b0390921693509061014390610282565b80601f016020809104026020016040519081016040528092919081815260200182805461016f90610282565b80156101bc5780601f10610191576101008083540402835291602001916101bc565b820191906000526020600020905b81548152906001019060200180831161019f57829003601f168201915b5050505050908060050154908060060154905086565b6000602082840312156101e457600080fd5b5035919050565b6000815180845260005b81811015610211576020818501810151868301820152016101f5565b506000602082860101526020601f19601f83011685010191505092915050565b60c08152600061024460c08301896101eb565b602083018890526001600160a01b0387166040840152828103606084015261026c81876101eb565b6080840195909552505060a00152949350505050565b600181811c9082168061029657607f821691505b6020821081036102b657634e487b7160e01b600052602260045260246000fd5b5091905056fea2646970667358221220496fa1a5af6a426f1311a5f4853825c32c9614a3b024afb9bffbd3a11972cfd664736f6c63430008110033",
    "sourcePath": "e:/Blockchain/blockchain_supply_chain/ethereum/contracts/item.sol",
    "compiler": {
        "name": "solc",
        "version": "0.8.17+commit.8df45f5f"
    },
    "functionHashes": {
        "Items(uint256)": "17b47cc4",
        "ic()": "a8d9da12"
    },
    "gasEstimates": {
        "creation": {
            "codeDepositCost": "150800",
            "executionCost": "5202",
            "totalCost": "156002"
        },
        "external": {
            "Items(uint256)": "infinite",
            "ic()": "2295"
        }
    }
}