{
    "contractName": "Modifier",
    "abi": [
        {
            "inputs": [],
            "stateMutability": "nonpayable",
            "type": "constructor"
        },
        {
            "inputs": [
                {
                    "internalType": "uint256",
                    "name": "",
                    "type": "uint256"
                }
            ],
            "name": "Items",
            "outputs": [
                {
                    "internalType": "string",
                    "name": "product_name",
                    "type": "string"
                },
                {
                    "internalType": "uint256",
                    "name": "productId",
                    "type": "uint256"
                },
                {
                    "internalType": "address",
                    "name": "itemOwner",
                    "type": "address"
                },
                {
                    "internalType": "string",
                    "name": "current_location",
                    "type": "string"
                },
                {
                    "internalType": "uint256",
                    "name": "norders",
                    "type": "uint256"
                },
                {
                    "internalType": "uint256",
                    "name": "cost",
                    "type": "uint256"
                }
            ],
            "stateMutability": "view",
            "type": "function"
        },
        {
            "inputs": [],
            "name": "ic",
            "outputs": [
                {
                    "internalType": "uint256",
                    "name": "",
                    "type": "uint256"
                }
            ],
            "stateMutability": "view",
            "type": "function"
        },
        {
            "inputs": [],
            "name": "owner",
            "outputs": [
                {
                    "internalType": "address",
                    "name": "",
                    "type": "address"
                }
            ],
            "stateMutability": "view",
            "type": "function"
        },
        {
            "inputs": [
                {
                    "internalType": "uint256",
                    "name": "",
                    "type": "uint256"
                }
            ],
            "name": "participants",
            "outputs": [
                {
                    "internalType": "string",
                    "name": "username",
                    "type": "string"
                },
                {
                    "internalType": "uint256",
                    "name": "userId",
                    "type": "uint256"
                },
                {
                    "internalType": "enum Participant.user_type",
                    "name": "utype",
                    "type": "uint8"
                },
                {
                    "internalType": "string",
                    "name": "location",
                    "type": "string"
                },
                {
                    "internalType": "address",
                    "name": "user_address",
                    "type": "address"
                }
            ],
            "stateMutability": "view",
            "type": "function"
        }
    ],
    "bytecode": "6080604052600080556000600255600060055534801561001e57600080fd5b50600780546001600160a01b03191633179055610510806100406000396000f3fe608060405234801561001057600080fd5b506004361061004c5760003560e01c806317b47cc41461005157806335c1d3491461007f5780638da5cb5b146100a3578063a8d9da12146100ce575b600080fd5b61006461005f366004610386565b6100e5565b604051610076969594939291906103e5565b60405180910390f35b61009261008d366004610386565b610237565b604051610076959493929190610436565b6007546100b6906001600160a01b031681565b6040516001600160a01b039091168152602001610076565b6100d760005481565b604051908152602001610076565b600160205260009081526040902080548190610100906104a0565b80601f016020809104026020016040519081016040528092919081815260200182805461012c906104a0565b80156101795780601f1061014e57610100808354040283529160200191610179565b820191906000526020600020905b81548152906001019060200180831161015c57829003601f168201915b5050505060018301546002840154600385018054949592946001600160a01b039092169350906101a8906104a0565b80601f01602080910402602001604051908101604052809291908181526020018280546101d4906104a0565b80156102215780601f106101f657610100808354040283529160200191610221565b820191906000526020600020905b81548152906001019060200180831161020457829003601f168201915b5050505050908060050154908060060154905086565b600360205260009081526040902080548190610252906104a0565b80601f016020809104026020016040519081016040528092919081815260200182805461027e906104a0565b80156102cb5780601f106102a0576101008083540402835291602001916102cb565b820191906000526020600020905b8154815290600101906020018083116102ae57829003601f168201915b50505050600183015460028401546003850180549495929460ff9092169350906102f4906104a0565b80601f0160208091040260200160405190810160405280929190818152602001828054610320906104a0565b801561036d5780601f106103425761010080835404028352916020019161036d565b820191906000526020600020905b81548152906001019060200180831161035057829003601f168201915b505050600490930154919250506001600160a01b031685565b60006020828403121561039857600080fd5b5035919050565b6000815180845260005b818110156103c5576020818501810151868301820152016103a9565b506000602082860101526020601f19601f83011685010191505092915050565b60c0815260006103f860c083018961039f565b602083018890526001600160a01b03871660408401528281036060840152610420818761039f565b6080840195909552505060a00152949350505050565b60a08152600061044960a083018861039f565b8660208401526004861061046d57634e487b7160e01b600052602160045260246000fd5b8560408401528281036060840152610485818661039f565b91505060018060a01b03831660808301529695505050505050565b600181811c908216806104b457607f821691505b6020821081036104d457634e487b7160e01b600052602260045260246000fd5b5091905056fea2646970667358221220495d87bd20ed00245c0911f839b9064afa7f00636d5fc4a9f00ca95c26a4a29a64736f6c63430008110033",
    "sourcePath": "e:/Blockchain/blockchain_supply_chain/ethereum/contracts/modifier.sol",
    "compiler": {
        "name": "solc",
        "version": "0.8.17+commit.8df45f5f"
    },
    "functionHashes": {
        "Items(uint256)": "17b47cc4",
        "ic()": "a8d9da12",
        "owner()": "8da5cb5b",
        "participants(uint256)": "35c1d349"
    },
    "gasEstimates": {
        "creation": {
            "codeDepositCost": "259200",
            "executionCost": "39553",
            "totalCost": "298753"
        },
        "external": {
            "Items(uint256)": "infinite",
            "ic()": "2339",
            "owner()": "2359",
            "participants(uint256)": "infinite"
        }
    }
}