{
    "contractName": "order",
    "abi": [
        {
            "inputs": [
                {
                    "internalType": "uint256",
                    "name": "",
                    "type": "uint256"
                }
            ],
            "name": "Items",
            "outputs": [
                {
                    "internalType": "string",
                    "name": "product_name",
                    "type": "string"
                },
                {
                    "internalType": "uint256",
                    "name": "productId",
                    "type": "uint256"
                },
                {
                    "internalType": "address",
                    "name": "itemOwner",
                    "type": "address"
                },
                {
                    "internalType": "string",
                    "name": "current_location",
                    "type": "string"
                },
                {
                    "internalType": "uint256",
                    "name": "norders",
                    "type": "uint256"
                },
                {
                    "internalType": "uint256",
                    "name": "cost",
                    "type": "uint256"
                }
            ],
            "stateMutability": "view",
            "type": "function"
        },
        {
            "inputs": [],
            "name": "ic",
            "outputs": [
                {
                    "internalType": "uint256",
                    "name": "",
                    "type": "uint256"
                }
            ],
            "stateMutability": "view",
            "type": "function"
        },
        {
            "inputs": [
                {
                    "internalType": "uint256",
                    "name": "",
                    "type": "uint256"
                }
            ],
            "name": "participants",
            "outputs": [
                {
                    "internalType": "string",
                    "name": "username",
                    "type": "string"
                },
                {
                    "internalType": "uint256",
                    "name": "userId",
                    "type": "uint256"
                },
                {
                    "internalType": "enum Participant.user_type",
                    "name": "utype",
                    "type": "uint8"
                },
                {
                    "internalType": "string",
                    "name": "location",
                    "type": "string"
                },
                {
                    "internalType": "address",
                    "name": "user_address",
                    "type": "address"
                }
            ],
            "stateMutability": "view",
            "type": "function"
        }
    ],
    "bytecode": "6080604052600080556000600255600060055534801561001e57600080fd5b506104da8061002e6000396000f3fe608060405234801561001057600080fd5b50600436106100415760003560e01c806317b47cc41461004657806335c1d34914610074578063a8d9da1214610098575b600080fd5b610059610054366004610350565b6100af565b60405161006b969594939291906103af565b60405180910390f35b610087610082366004610350565b610201565b60405161006b959493929190610400565b6100a160005481565b60405190815260200161006b565b6001602052600090815260409020805481906100ca9061046a565b80601f01602080910402602001604051908101604052809291908181526020018280546100f69061046a565b80156101435780601f1061011857610100808354040283529160200191610143565b820191906000526020600020905b81548152906001019060200180831161012657829003601f168201915b5050505060018301546002840154600385018054949592946001600160a01b039092169350906101729061046a565b80601f016020809104026020016040519081016040528092919081815260200182805461019e9061046a565b80156101eb5780601f106101c0576101008083540402835291602001916101eb565b820191906000526020600020905b8154815290600101906020018083116101ce57829003601f168201915b5050505050908060050154908060060154905086565b60036020526000908152604090208054819061021c9061046a565b80601f01602080910402602001604051908101604052809291908181526020018280546102489061046a565b80156102955780601f1061026a57610100808354040283529160200191610295565b820191906000526020600020905b81548152906001019060200180831161027857829003601f168201915b50505050600183015460028401546003850180549495929460ff9092169350906102be9061046a565b80601f01602080910402602001604051908101604052809291908181526020018280546102ea9061046a565b80156103375780601f1061030c57610100808354040283529160200191610337565b820191906000526020600020905b81548152906001019060200180831161031a57829003601f168201915b505050600490930154919250506001600160a01b031685565b60006020828403121561036257600080fd5b5035919050565b6000815180845260005b8181101561038f57602081850181015186830182015201610373565b506000602082860101526020601f19601f83011685010191505092915050565b60c0815260006103c260c0830189610369565b602083018890526001600160a01b038716604084015282810360608401526103ea8187610369565b6080840195909552505060a00152949350505050565b60a08152600061041360a0830188610369565b8660208401526004861061043757634e487b7160e01b600052602160045260246000fd5b856040840152828103606084015261044f8186610369565b91505060018060a01b03831660808301529695505050505050565b600181811c9082168061047e57607f821691505b60208210810361049e57634e487b7160e01b600052602260045260246000fd5b5091905056fea2646970667358221220f1ce2f20cc877236df0d3d86abab1dd1407abfcdd20dfb566b4aab653ef3639264736f6c63430008110033",
    "sourcePath": "e:/Blockchain/blockchain_supply_chain/ethereum/contracts/order.sol",
    "compiler": {
        "name": "solc",
        "version": "0.8.17+commit.8df45f5f"
    },
    "functionHashes": {
        "Items(uint256)": "17b47cc4",
        "ic()": "a8d9da12",
        "participants(uint256)": "35c1d349"
    },
    "gasEstimates": {
        "creation": {
            "codeDepositCost": "248400",
            "executionCost": "15305",
            "totalCost": "263705"
        },
        "external": {
            "Items(uint256)": "infinite",
            "ic()": "2317",
            "participants(uint256)": "infinite"
        }
    }
}