{
    "contractName": "Participant",
    "abi": [
        {
            "inputs": [
                {
                    "internalType": "uint256",
                    "name": "",
                    "type": "uint256"
                }
            ],
            "name": "participants",
            "outputs": [
                {
                    "internalType": "string",
                    "name": "username",
                    "type": "string"
                },
                {
                    "internalType": "uint256",
                    "name": "userId",
                    "type": "uint256"
                },
                {
                    "internalType": "enum Participant.user_type",
                    "name": "utype",
                    "type": "uint8"
                },
                {
                    "internalType": "string",
                    "name": "location",
                    "type": "string"
                },
                {
                    "internalType": "address",
                    "name": "user_address",
                    "type": "address"
                }
            ],
            "stateMutability": "view",
            "type": "function"
        }
    ],
    "bytecode": "60806040526000805534801561001457600080fd5b506102e5806100246000396000f3fe608060405234801561001057600080fd5b506004361061002b5760003560e01c806335c1d34914610030575b600080fd5b61004361003e3660046101ac565b61005d565b60405161005495949392919061020b565b60405180910390f35b60016020526000908152604090208054819061007890610275565b80601f01602080910402602001604051908101604052809291908181526020018280546100a490610275565b80156100f15780601f106100c6576101008083540402835291602001916100f1565b820191906000526020600020905b8154815290600101906020018083116100d457829003601f168201915b50505050600183015460028401546003850180549495929460ff90921693509061011a90610275565b80601f016020809104026020016040519081016040528092919081815260200182805461014690610275565b80156101935780601f1061016857610100808354040283529160200191610193565b820191906000526020600020905b81548152906001019060200180831161017657829003601f168201915b505050600490930154919250506001600160a01b031685565b6000602082840312156101be57600080fd5b5035919050565b6000815180845260005b818110156101eb576020818501810151868301820152016101cf565b506000602082860101526020601f19601f83011685010191505092915050565b60a08152600061021e60a08301886101c5565b8660208401526004861061024257634e487b7160e01b600052602160045260246000fd5b856040840152828103606084015261025a81866101c5565b91505060018060a01b03831660808301529695505050505050565b600181811c9082168061028957607f821691505b6020821081036102a957634e487b7160e01b600052602260045260246000fd5b5091905056fea2646970667358221220f44af061bf554cc28ad88bb8b18b02116f15b5c0bcbf8fb2d5d9c3179da8d17564736f6c63430008110033",
    "sourcePath": "e:/Blockchain/blockchain_supply_chain/ethereum/contracts/member.sol",
    "compiler": {
        "name": "solc",
        "version": "0.8.17+commit.8df45f5f"
    },
    "functionHashes": {
        "participants(uint256)": "35c1d349"
    },
    "gasEstimates": {
        "creation": {
            "codeDepositCost": "148200",
            "executionCost": "5202",
            "totalCost": "153402"
        },
        "external": {
            "participants(uint256)": "infinite"
        }
    }
}