{
    "contractName": "Supplychain",
    "abi": [
        {
            "anonymous": false,
            "inputs": [
                {
                    "indexed": false,
                    "internalType": "uint256",
                    "name": "upc",
                    "type": "uint256"
                }
            ],
            "name": "checked",
            "type": "event"
        },
        {
            "anonymous": false,
            "inputs": [
                {
                    "indexed": false,
                    "internalType": "uint256",
                    "name": "upc",
                    "type": "uint256"
                },
                {
                    "indexed": false,
                    "internalType": "address",
                    "name": "_address",
                    "type": "address"
                }
            ],
            "name": "itemcreated",
            "type": "event"
        },
        {
            "anonymous": false,
            "inputs": [
                {
                    "indexed": false,
                    "internalType": "uint256",
                    "name": "upc",
                    "type": "uint256"
                }
            ],
            "name": "openForSale",
            "type": "event"
        },
        {
            "anonymous": false,
            "inputs": [
                {
                    "indexed": false,
                    "internalType": "uint256",
                    "name": "upc",
                    "type": "uint256"
                },
                {
                    "indexed": false,
                    "internalType": "address",
                    "name": "_address",
                    "type": "address"
                }
            ],
            "name": "orderPlaced",
            "type": "event"
        },
        {
            "anonymous": false,
            "inputs": [
                {
                    "indexed": false,
                    "internalType": "uint256",
                    "name": "upc",
                    "type": "uint256"
                },
                {
                    "indexed": false,
                    "internalType": "address",
                    "name": "_address",
                    "type": "address"
                }
            ],
            "name": "received",
            "type": "event"
        },
        {
            "anonymous": false,
            "inputs": [
                {
                    "indexed": false,
                    "internalType": "uint256",
                    "name": "upc",
                    "type": "uint256"
                },
                {
                    "indexed": false,
                    "internalType": "address",
                    "name": "_address",
                    "type": "address"
                }
            ],
            "name": "shipped",
            "type": "event"
        },
        {
            "inputs": [
                {
                    "internalType": "uint256",
                    "name": "",
                    "type": "uint256"
                }
            ],
            "name": "Items",
            "outputs": [
                {
                    "internalType": "string",
                    "name": "product_name",
                    "type": "string"
                },
                {
                    "internalType": "uint256",
                    "name": "productId",
                    "type": "uint256"
                },
                {
                    "internalType": "address",
                    "name": "itemOwner",
                    "type": "address"
                },
                {
                    "internalType": "string",
                    "name": "current_location",
                    "type": "string"
                },
                {
                    "internalType": "uint256",
                    "name": "norders",
                    "type": "uint256"
                },
                {
                    "internalType": "uint256",
                    "name": "cost",
                    "type": "uint256"
                }
            ],
            "stateMutability": "view",
            "type": "function"
        },
        {
            "inputs": [
                {
                    "internalType": "string",
                    "name": "_product_name",
                    "type": "string"
                },
                {
                    "internalType": "uint256",
                    "name": "cost",
                    "type": "uint256"
                }
            ],
            "name": "addItem",
            "outputs": [],
            "stateMutability": "nonpayable",
            "type": "function"
        },
        {
            "inputs": [
                {
                    "internalType": "string",
                    "name": "_uname",
                    "type": "string"
                },
                {
                    "internalType": "string",
                    "name": "place",
                    "type": "string"
                }
            ],
            "name": "addManufacturer",
            "outputs": [],
            "stateMutability": "nonpayable",
            "type": "function"
        },
        {
            "inputs": [
                {
                    "internalType": "string",
                    "name": "_uname",
                    "type": "string"
                },
                {
                    "internalType": "string",
                    "name": "place",
                    "type": "string"
                }
            ],
            "name": "addSupplier",
            "outputs": [],
            "stateMutability": "nonpayable",
            "type": "function"
        },
        {
            "inputs": [
                {
                    "internalType": "string",
                    "name": "_uname",
                    "type": "string"
                },
                {
                    "internalType": "string",
                    "name": "place",
                    "type": "string"
                }
            ],
            "name": "addcustomer",
            "outputs": [],
            "stateMutability": "nonpayable",
            "type": "function"
        },
        {
            "inputs": [
                {
                    "internalType": "string",
                    "name": "_uname",
                    "type": "string"
                },
                {
                    "internalType": "string",
                    "name": "place",
                    "type": "string"
                }
            ],
            "name": "addretailer",
            "outputs": [],
            "stateMutability": "nonpayable",
            "type": "function"
        },
        {
            "inputs": [
                {
                    "internalType": "uint256",
                    "name": "_id",
                    "type": "uint256"
                }
            ],
            "name": "getOrderHistory",
            "outputs": [
                {
                    "internalType": "address[]",
                    "name": "",
                    "type": "address[]"
                }
            ],
            "stateMutability": "view",
            "type": "function"
        },
        {
            "inputs": [],
            "name": "ic",
            "outputs": [
                {
                    "internalType": "uint256",
                    "name": "",
                    "type": "uint256"
                }
            ],
            "stateMutability": "view",
            "type": "function"
        },
        {
            "inputs": [
                {
                    "internalType": "uint256",
                    "name": "_id",
                    "type": "uint256"
                }
            ],
            "name": "moveProduct",
            "outputs": [],
            "stateMutability": "nonpayable",
            "type": "function"
        },
        {
            "inputs": [],
            "name": "owner",
            "outputs": [
                {
                    "internalType": "address",
                    "name": "",
                    "type": "address"
                }
            ],
            "stateMutability": "view",
            "type": "function"
        },
        {
            "inputs": [
                {
                    "internalType": "uint256",
                    "name": "",
                    "type": "uint256"
                }
            ],
            "name": "participants",
            "outputs": [
                {
                    "internalType": "string",
                    "name": "username",
                    "type": "string"
                },
                {
                    "internalType": "uint256",
                    "name": "userId",
                    "type": "uint256"
                },
                {
                    "internalType": "enum Participant.user_type",
                    "name": "utype",
                    "type": "uint8"
                },
                {
                    "internalType": "string",
                    "name": "location",
                    "type": "string"
                },
                {
                    "internalType": "address",
                    "name": "user_address",
                    "type": "address"
                }
            ],
            "stateMutability": "view",
            "type": "function"
        },
        {
            "inputs": [
                {
                    "internalType": "uint256",
                    "name": "_id",
                    "type": "uint256"
                }
            ],
            "name": "personDetail",
            "outputs": [
                {
                    "components": [
                        {
                            "internalType": "string",
                            "name": "username",
                            "type": "string"
                        },
                        {
                            "internalType": "uint256",
                            "name": "userId",
                            "type": "uint256"
                        },
                        {
                            "internalType": "enum Participant.user_type",
                            "name": "utype",
                            "type": "uint8"
                        },
                        {
                            "internalType": "string",
                            "name": "location",
                            "type": "string"
                        },
                        {
                            "internalType": "address",
                            "name": "user_address",
                            "type": "address"
                        }
                    ],
                    "internalType": "struct Participant.participant",
                    "name": "",
                    "type": "tuple"
                }
            ],
            "stateMutability": "view",
            "type": "function"
        }
    ],
    "bytecode": "6080604052600080556000600255600060055534801561001e57600080fd5b50600780546001600160a01b03191633179055610ed5806100406000396000f3fe608060405234801561001057600080fd5b50600436106100b45760003560e01c806362d6bbdf1161007157806362d6bbdf146101605780637dbd250b146101735780638da5cb5b1461018657806391c6bd42146101b1578063a8d9da12146101c4578063cf6e528c146101db57600080fd5b806317b47cc4146100b957806335c1d349146100e757806347dce83a1461010b578063518b4c641461010b57806354a153e9146101205780635fb9737614610140575b600080fd5b6100cc6100c73660046109c2565b6101ee565b6040516100de96959493929190610a21565b60405180910390f35b6100fa6100f53660046109c2565b610340565b6040516100de959493929190610aaa565b61011e610119366004610ba0565b61048f565b005b61013361012e3660046109c2565b610615565b6040516100de9190610c04565b61015361014e3660046109c2565b6107b1565b6040516100de9190610c7c565b61011e61016e366004610cc9565b610820565b61011e610181366004610ba0565b6108dd565b600754610199906001600160a01b031681565b6040516001600160a01b0390911681526020016100de565b61011e6101bf3660046109c2565b6108fb565b6101cd60005481565b6040519081526020016100de565b61011e6101e9366004610ba0565b610964565b60016020526000908152604090208054819061020990610d0e565b80601f016020809104026020016040519081016040528092919081815260200182805461023590610d0e565b80156102825780601f1061025757610100808354040283529160200191610282565b820191906000526020600020905b81548152906001019060200180831161026557829003601f168201915b5050505060018301546002840154600385018054949592946001600160a01b039092169350906102b190610d0e565b80601f01602080910402602001604051908101604052809291908181526020018280546102dd90610d0e565b801561032a5780601f106102ff5761010080835404028352916020019161032a565b820191906000526020600020905b81548152906001019060200180831161030d57829003601f168201915b5050505050908060050154908060060154905086565b60036020526000908152604090208054819061035b90610d0e565b80601f016020809104026020016040519081016040528092919081815260200182805461038790610d0e565b80156103d45780601f106103a9576101008083540402835291602001916103d4565b820191906000526020600020905b8154815290600101906020018083116103b757829003601f168201915b50505050600183015460028401546003850180549495929460ff9092169350906103fd90610d0e565b80601f016020809104026020016040519081016040528092919081815260200182805461042990610d0e565b80156104765780601f1061044b57610100808354040283529160200191610476565b820191906000526020600020905b81548152906001019060200180831161045957829003601f168201915b505050600490930154919250506001600160a01b031685565b610497610982565b82815260025460208201526040810160005b908160038111156104bc576104bc610a72565b905250336080820152606081018290526002546000908152600360205260409020815182919081906104ee9082610d97565b506020820151816001015560408201518160020160006101000a81548160ff0219169083600381111561052357610523610a72565b02179055506060820151600382019061053c9082610d97565b5060809190910151600491820180546001600160a01b0319166001600160a01b0390921691909117905533600090815260209190915260409020815182919081906105879082610d97565b506020820151816001015560408201518160020160006101000a81548160ff021916908360038111156105bc576105bc610a72565b0217905550606082015160038201906105d59082610d97565b5060809190910151600490910180546001600160a01b0319166001600160a01b0390921691909117905560025461060d906001610e6d565b600255505050565b61061d610982565b60008281526003602052604090819020815160a0810190925280548290829061064590610d0e565b80601f016020809104026020016040519081016040528092919081815260200182805461067190610d0e565b80156106be5780601f10610693576101008083540402835291602001916106be565b820191906000526020600020905b8154815290600101906020018083116106a157829003601f168201915b505050918352505060018201546020820152600282015460409091019060ff1660038111156106ef576106ef610a72565b600381111561070057610700610a72565b815260200160038201805461071490610d0e565b80601f016020809104026020016040519081016040528092919081815260200182805461074090610d0e565b801561078d5780601f106107625761010080835404028352916020019161078d565b820191906000526020600020905b81548152906001019060200180831161077057829003601f168201915b5050509183525050600491909101546001600160a01b031660209091015292915050565b60008181526001602090815260409182902060040180548351818402810184019094528084526060939283018282801561081457602002820191906000526020600020905b81546001600160a01b031681526001909101906020018083116107f6575b50505050509050919050565b6000805481526001602052604090208061083a8482610d97565b506000805460018381019190915560068301849055600283018054336001600160a01b0319918216811790925560058501849055600485018054938401815584526020808520909301805490911682179055915460408051918252918101929092527f4e95503bf2c40739506d6f0afb0fe6be42ce748d90f3f516386892fb6096e5bc910160405180910390a16000546108d5906001610e6d565b600055505050565b6108e5610982565b82815260025460208201526040810160016104a9565b600081815260016020526040812060050180549161091883610e86565b909155505060009081526001602081815260408320600281018054336001600160a01b031991821681179092556004909201805494850181558552919093209091018054909216179055565b61096c610982565b82815260025460208201526040810160036104a9565b6040518060a001604052806060815260200160008152602001600060038111156109ae576109ae610a72565b815260606020820152600060409091015290565b6000602082840312156109d457600080fd5b5035919050565b6000815180845260005b81811015610a01576020818501810151868301820152016109e5565b506000602082860101526020601f19601f83011685010191505092915050565b60c081526000610a3460c08301896109db565b602083018890526001600160a01b03871660408401528281036060840152610a5c81876109db565b6080840195909552505060a00152949350505050565b634e487b7160e01b600052602160045260246000fd5b60048110610aa657634e487b7160e01b600052602160045260246000fd5b9052565b60a081526000610abd60a08301886109db565b866020840152610ad06040840187610a88565b8281036060840152610ae281866109db565b91505060018060a01b03831660808301529695505050505050565b634e487b7160e01b600052604160045260246000fd5b600082601f830112610b2457600080fd5b813567ffffffffffffffff80821115610b3f57610b3f610afd565b604051601f8301601f19908116603f01168101908282118183101715610b6757610b67610afd565b81604052838152866020858801011115610b8057600080fd5b836020870160208301376000602085830101528094505050505092915050565b60008060408385031215610bb357600080fd5b823567ffffffffffffffff80821115610bcb57600080fd5b610bd786838701610b13565b93506020850135915080821115610bed57600080fd5b50610bfa85828601610b13565b9150509250929050565b602081526000825160a06020840152610c2060c08401826109db565b9050602084015160408401526040840151610c3e6060850182610a88565b506060840151838203601f19016080850152610c5a82826109db565b608095909501516001600160a01b031660a09490940193909352509192915050565b6020808252825182820181905260009190848201906040850190845b81811015610cbd5783516001600160a01b031683529284019291840191600101610c98565b50909695505050505050565b60008060408385031215610cdc57600080fd5b823567ffffffffffffffff811115610cf357600080fd5b610cff85828601610b13565b95602094909401359450505050565b600181811c90821680610d2257607f821691505b602082108103610d4257634e487b7160e01b600052602260045260246000fd5b50919050565b601f821115610d9257600081815260208120601f850160051c81016020861015610d6f5750805b601f850160051c820191505b81811015610d8e57828155600101610d7b565b5050505b505050565b815167ffffffffffffffff811115610db157610db1610afd565b610dc581610dbf8454610d0e565b84610d48565b602080601f831160018114610dfa5760008415610de25750858301515b600019600386901b1c1916600185901b178555610d8e565b600085815260208120601f198616915b82811015610e2957888601518255948401946001909101908401610e0a565b5085821015610e475787850151600019600388901b60f8161c191681555b5050505050600190811b01905550565b634e487b7160e01b600052601160045260246000fd5b80820180821115610e8057610e80610e57565b92915050565b600060018201610e9857610e98610e57565b506001019056fea26469706673582212208e0aaf741ef603639bb0a924a98af6c1dcbd89f52a1ca7f3df5199b3eba13b6964736f6c63430008110033",
    "sourcePath": "e:/Blockchain/blockchain_supply_chain/ethereum/contracts/main.sol",
    "compiler": {
        "name": "solc",
        "version": "0.8.17+commit.8df45f5f"
    },
    "functionHashes": {
        "Items(uint256)": "17b47cc4",
        "addItem(string,uint256)": "62d6bbdf",
        "addManufacturer(string,string)": "518b4c64",
        "addSupplier(string,string)": "7dbd250b",
        "addcustomer(string,string)": "47dce83a",
        "addretailer(string,string)": "cf6e528c",
        "getOrderHistory(uint256)": "5fb97376",
        "ic()": "a8d9da12",
        "moveProduct(uint256)": "91c6bd42",
        "owner()": "8da5cb5b",
        "participants(uint256)": "35c1d349",
        "personDetail(uint256)": "54a153e9"
    },
    "gasEstimates": {
        "creation": {
            "codeDepositCost": "759400",
            "executionCost": "40045",
            "totalCost": "799445"
        },
        "external": {
            "Items(uint256)": "infinite",
            "addItem(string,uint256)": "infinite",
            "addManufacturer(string,string)": "infinite",
            "addSupplier(string,string)": "infinite",
            "addcustomer(string,string)": "infinite",
            "addretailer(string,string)": "infinite",
            "getOrderHistory(uint256)": "infinite",
            "ic()": "2383",
            "moveProduct(uint256)": "97475",
            "owner()": "2381",
            "participants(uint256)": "infinite",
            "personDetail(uint256)": "infinite"
        }
    }
}